:100000000C944A000C9456000C9456000C94560024
:100010000C9456000C9456000C9456000C94560008
:100020000C9456000C9456000C9456000C945600F8
:100030000C9456000C9456000C9456000C945600E8
:100040000C9456000C9456000C9456000C945600D8
:100050000C9456000C9456000C9456000C945600C8
:100060000C9456000C9456000C9456000C945600B8
:100070000C9456000C9456000C9456000C945600A8
:100080000C9456000C9456000C9456000C94560098
:100090000C94560011241FBECFEFD0E1DEBFCDBFC0
:0C00A0000E9458000C945400F894FFCF0C
:0400AC000C940000B0
:0200B000FFCF80
:00000001FF
